:1000000012C02CC02BC00AC148C028C027C026C0BF
:1000100025C024C023C022C021C020C01FC01EC0D4
:100020001DC01CC01BC011241FBECFE5D4E0DEBF25
:10003000CDBF10E0A0E6B0E0E2EFF4E002C0059032
:100040000D92A836B107D9F720E0A8E6B0E001C0CC
:100050001D92AC3EB207E1F702D049C2D1CFF0D039
:1000600060E48CEA90E01CD1C8EED3E0D7D12197B0
:100070002097E1F760E48CE690E012D19091AC001B
:1000800080916C00981738F482E080936B00D4D094
:1000900078940000FECF81E0F8CF0F920FB60F9258
:1000A0001F9211242F933F934F935F936F937F93EE
:1000B0008F939F93EF93FF938091690090916A00D3
:1000C00020916B0030E0409164004423C9F1820F1D
:1000D000931F8F3F91055CF590936A0080936900B0
:1000E0008091690083BD80916500823009F456C01B
:1000F000833009F46DC0813059F482B39091660069
:1001000021E030E001C0220F9A95EAF7822B82BBF2
:10011000FF91EF919F918F917F916F915F914F919F
:100120003F912F911F900F900FBE0F9018958FEF5A
:1001300090E090936A008093690010926400D0CFA1
:10014000821B930B181619063CF210926A0010924B
:10015000690081E080936400809168008F5F803443
:1001600008F080E08093680090E0FC01E455FF4FC8
:10017000208184599F4FFC013081822F632FBCD096
:1001800083E0911106C0832F622FB6D081E09111D8
:1001900082E08093650020936600A2CF52B3409125
:1001A0006600E42F042E000CFF0BE455FF4F808106
:1001B00021E030E0B90102C0660F771F8A95E2F7AF
:1001C000CB0101C0220F4A95EAF7822B852B9FCFE6
:1001D00072B360916600462F062E000C550BFA0193
:1001E000E455FF4F808121E030E0F90102C0EE0FBD
:1001F000FF1F8A95E2F7CF0144595F4FFA01408112
:10020000F90102C0EE0FFF1F4A95E2F78E2B01C0E5
:10021000220F6A95EAF7822B872B79CF1F921FB6A0
:100220001F92112412BA1F901FBE1F90189584E0D0
:1002300085BD80EC89BF0895FADF8FEF81BB0895FB
:1002400080E487B984E886B990E040E050E0A8E017
:10025000B0E0369A3499FECF349A64B175B1892FE3
:10026000877024B135B1FD01E81BF10902C0369554
:100270002795EA95E2F702C0660F771F8A95E2F7A5
:10028000262B372B42275327E9EFF0E03197F1F780
:1002900000C000009F5F9031E1F63798CA01C2C0EC
:1002A000CF92DF92EF92FF921F93CF93DF93EC01F7
:1002B000162F662369F0B2D068E070E029D08883F9
:1002C000EE24E394F12C98E0C92ED12CE11640F0F5
:1002D000DF91CF911F91FF90EF90DF90CF90089525
:1002E0009DD0B60115D098819817D1F389838FEFEF
:1002F000E81AF80A2196EACF991B79E004C0991F01
:10030000961708F0961B881F7A95C9F7809508956F
:1003100097FB072E16F4009406D077FD08D00BD07B
:1003200007FC05D03EF4909581959F4F08957095F8
:1003300061957F4F0895AA1BBB1B51E107C0AA1FFF
:10034000BB1FA617B70710F0A61BB70B881F991F76
:100350005A95A9F780959095BC01CD010895CF924B
:10036000DF92EF92FF92CF93DF93CDB7DEB72A975C
:100370000FB6F894DEBF0FBECDBF89879A87A985D7
:10038000BA852D913D914D915C9129833A834B83A0
:100390005C8382E49EECACE0BFE1211531054105B0
:1003A000510531F1CA01B9012DE133EF41E050E0CF
:1003B00044D069017A01A7EAB1E49B01AC0159D0AC
:1003C00069837A838B839C83ACEEB4EFA70196019B
:1003D0005CD09B01AC0189819A81AB81BC81820F89
:1003E000931FA41FB51FB7FF03C00197A109B04811
:1003F000E985FA8580839183A283B3839F772A96C8
:100400000FB6F894DEBF0FBECDBFDF91CF91FF9046
:10041000EF90DF90CF900895A2DF089580E690E0FE
:100420009EDF0895A0E0B0E08093600090936100AB
:10043000A0936200B09363000895052E97FB16F415
:1004400000940FD057FD05D024D007FC02D046F40D
:1004500008C050954095309521953F4F4F4F5F4FC5
:10046000089590958095709561957F4F8F4F9F4F20
:10047000089531D0A59F900DB49F900DA49F800D3D
:10048000911D11240895B7FFF4CFF3DF821B930B66
:100490000895A1E21A2EAA1BBB1BFD010DC0AA1FC5
:1004A000BB1FEE1FFF1FA217B307E407F50720F0DD
:1004B000A21BB30BE40BF50B661F771F881F991F58
:1004C0001A9469F760957095809590959B01AC01A1
:1004D000BD01CF010895A29FB001B39FC001A39FAA
:1004E00001D0B29F700D811D1124911D0895F894C3
:0204F000FFCF3C
:0804F200010000000101FF0000
:00000001FF
