:1000000019C033C032C031C030C02FC02EC02DC087
:100010002CC02BC02AC029C028C027C0E6C025C0DC
:1000200037C023C022C021C020C01FC01EC01DC0B9
:100030001CC01BC011241FBECFEFD2E0DEBFCDBF5E
:1000400011E0A0E0B1E0E8EEF4E002C005900D920E
:10005000A830B107D9F721E0A8E0B1E001C01D92B6
:10006000AA31B207E1F702D03DC2CACFCCD0789412
:10007000CED060E482E191E00ED1C8EED3E0C9D1E8
:1000800021972097E1F760E48AE091E004D1FFCF67
:100090000F920FB60F921F9211242F933F934F93FD
:1000A0005F936F937F938F939F93EF93FF938091D1
:1000B000090190910401992371F18F5F80930901E7
:1000C0008F3F11F4109204018091090187BD809146
:1000D0000501823009F449C0833009F460C08130E1
:1000E00059F48BB19091060121E030E001C0220F5C
:1000F0009A95EAF7822B8BB9FF91EF919F918F919F
:100100007F916F915F914F913F912F911F900F9031
:100110000FBE0F9018958150809309018111D4CFA3
:1001200091E090930401909108019F5F983008F44A
:10013000892F8093080190E0FC01EE5EFE4F208144
:10014000865F9E4FFC013081822F632FD0D083E0E9
:10015000911106C0832F622FCAD081E0911182E0F5
:100160008093050120930601AFCF5BB1409106015A
:10017000E42F042E000CFF0BEE5EFE4F808121E089
:1001800030E0B90102C0660F771F8A95E2F7CB0114
:1001900001C0220F4A95EAF7822B852BACCF7BB1A9
:1001A00060910601462F062E000C550BFA01EE5EFB
:1001B000FE4F808121E030E0F90102C0EE0FFF1F09
:1001C0008A95E2F7CF01465F5E4FFA014081F9015F
:1001D00002C0EE0FFF1F4A95E2F78E2B01C0220FDF
:1001E0006A95EAF7822B872B86CF1F921FB61F9244
:1001F00011241BB81F901FBE1F90189583E085BD6A
:1002000080936E000895FADF8FEF8AB9089580E435
:1002100080937C0084E880937A0090E040E050E096
:10022000E8E0F0E080917A00806480937A00809129
:100230007A0084FDFCCF80917A00806180937A00FF
:100240006091780070917900892F877020917800F3
:1002500030917900DF01A81BB10902C036952795BE
:10026000AA95E2F702C0660F771F8A95E2F7262B60
:10027000372B42275327A9EFB0E01197F1F700C0C1
:1002800000009F5F903171F680917A008F778093A4
:100290007A00CA01C2C0CF92DF92EF92FF921F9301
:1002A000CF93DF93EC01162F662369F0B2D068E09C
:1002B00070E029D08883EE24E394F12C98E0C92ED5
:1002C000D12CE11640F0DF91CF911F91FF90EF907C
:1002D000DF90CF9008959DD0B60115D098819817E2
:1002E000D1F389838FEFE81AF80A2196EACF991B98
:1002F00079E004C0991F961708F0961B881F7A951D
:10030000C9F78095089597FB072E16F4009406D040
:1003100077FD08D00BD007FC05D03EF49095819571
:100320009F4F0895709561957F4F0895AA1BBB1B41
:1003300051E107C0AA1FBB1FA617B70710F0A61BE5
:10034000B70B881F991F5A95A9F780959095BC0106
:10035000CD010895CF92DF92EF92FF92CF93DF937A
:10036000CDB7DEB72A970FB6F894DEBF0FBECDBF6C
:1003700089879A87A985BA852D913D914D915C9188
:1003800029833A834B835C8382E49EECACE0BFE13B
:10039000211531054105510531F1CA01B9012DE1A0
:1003A00033EF41E050E044D069017A01A7EAB1E4BB
:1003B0009B01AC0159D069837A838B839C83ACEE1B
:1003C000B4EFA70196015CD09B01AC0189819A81B1
:1003D000AB81BC81820F931FA41FB51FB7FF03C061
:1003E0000197A109B048E985FA8580839183A283AA
:1003F000B3839F772A960FB6F894DEBF0FBECDBFAA
:10040000DF91CF91FF90EF90DF90CF900895A2DF22
:10041000089580E091E09EDF0895A0E0B0E0809331
:10042000000190930101A0930201B093030108958C
:10043000052E97FB16F400940FD057FD05D024D05D
:1004400007FC02D046F408C05095409530952195A0
:100450003F4F4F4F5F4F08959095809570956195F0
:100460007F4F8F4F9F4F089531D0A59F900DB49F20
:10047000900DA49F800D911D11240895B7FFF4CF16
:10048000F3DF821B930B0895A1E21A2EAA1BBB1B5C
:10049000FD010DC0AA1FBB1FEE1FFF1FA217B30750
:1004A000E407F50720F0A21BB30BE40BF50B661F66
:1004B000771F881F991F1A9469F76095709580952A
:1004C00090959B01AC01BD01CF010895A29FB001A1
:1004D000B39FC001A39F01D0B29F700D811D112455
:0804E000911D0895F894FFCF6F
:0804E800010000000101FF000A
:00000001FF
