:1000000019C033C032C031C030C02FC02EC02DC087
:100010002CC02BC02AC029C028C027C0E7C025C0DB
:1000200056C123C022C021C020C01FC01EC01DC099
:100030001CC01BC011241FBECFEFD2E0DEBFCDBF5E
:1000400011E0A0E0B1E0ECEAF8E002C005900D920A
:10005000A630B107D9F721E0A6E0B1E001C01D92BA
:10006000A631B207E1F702D01FC4CACF00D000D03A
:1000700000D0CDB7DEB79FD17894A1D160E48EE0F7
:1000800091E0E1D188EE93E09A838983A4D3E9815A
:10009000FA813197FA83E983EF2BC1F760E486E0B8
:1000A00091E0D1D18EE0E82E81E0F82E96E0C92EC5
:1000B00091E0D92EF70121917F01F60131916F0175
:1000C000822F632FECD183E0911106C0832F622F22
:1000D000E6D181E0911182E0809304012093050133
:1000E00000E010E01E821D824801AE80BD800983C1
:1000F0009A82AB82BC8269817A818B819C816BD22E
:1001000067BD000020E635EE40E55DE309839A8295
:10011000AB82BC8269817A818B819C81F4D18B0115
:100120008E839D8320E030E04FE753E4982F8D814C
:1001300069831A839B838C8369817A818B819C81FB
:1001400046D287FDD1CF85B58D7F85BD88EA91E602
:10015000000001970097E1F785B5826085BD00E05A
:1001600010E01E821D824801AE80BD8009839A8204
:10017000AB82BC8269817A818B819C812CD2609513
:1001800067BD000020E635EE40E55DE309839A8215
:10019000AB82BC8269817A818B819C81B4D18B01D5
:1001A0008E839D8320E030E04FE753E4982F8D81CC
:1001B00069831A839B838C8369817A818B819C817B
:1001C00006D287FDD0CF85B58D7F85BD88EA91E6C3
:1001D000000001970097E1F785B5826085BDF6E1E3
:1001E000EF16F1E0FF0609F065CF5CCF0F920FB676
:1001F0000F922F933F934F935F936F937F938F93C0
:100200009F93EF93FF93809104018230F1F083304C
:10021000B9F1813061F42BB13091050181E090E0BA
:1002200001C0880F3A95EAF7809582238BB9FF9138
:10023000EF919F918F917F916F915F914F913F913E
:100240002F910F900FBE0F9018955BB14091050153
:10025000E42F042E000CFF0BE25FFE4F808121E0B3
:1002600030E0B90102C0660F771F8A95E2F7CB0133
:1002700001C0220F4A95EAF7822B80958523D6CFBD
:100280007BB160910501462F062E000C550BFA013B
:10029000E25FFE4F808121E030E0F90102C0EE0F05
:1002A000FF1F8A95E2F7CF014A5F5E4FFA01408156
:1002B000F90102C0EE0FFF1F4A95E2F78E2B01C035
:1002C000220F6A95EAF7822B80958723AFCF0F9292
:1002D0000FB60F922F933F934F935F936F937F933C
:1002E0008F939F93EF93FF93809104018230E9F005
:1002F0008330A9F1813059F48BB19091050121E04F
:1003000030E001C0220F9A95EAF7822B8BB9FF915A
:10031000EF919F918F917F916F915F914F913F915D
:100320002F910F900FBE0F9018955BB14091050172
:10033000E42F042E000CFF0BE25FFE4F808121E0D2
:1003400030E0B90102C0660F771F8A95E2F7CB0152
:1003500001C0220F4A95EAF7822B852BD7CF7BB1BC
:1003600060910501462F062E000C550BFA01E25F45
:10037000FE4F808121E030E0F90102C0EE0FFF1F47
:100380008A95E2F7CF014A5F5E4FFA014081F90199
:1003900002C0EE0FFF1F4A95E2F78E2B01C0220F1D
:1003A0006A95EAF7822B872BB1CF82E085BD83E087
:1003B00080936E000895F9DF8FEF8AB9089580E485
:1003C00080937C0084E880937A0090E040E050E0E5
:1003D000E8E0F0E080917A00806480937A00809178
:1003E0007A0084FDFCCF80917A00806180937A004E
:1003F0006091780070917900892F87702091780042
:1004000030917900DF01A81BB10902C0369527950C
:10041000AA95E2F702C0660F771F8A95E2F7262BAE
:10042000372B42275327A9EFB0E01197F1F700C00F
:1004300000009F5F903171F680917A008F778093F2
:100440007A00CA01CCC1CF92DF92EF92FF921F9344
:10045000CF93DF93EC01162F662369F0BCD168E0DF
:1004600070E029D08883EE24E394F12C98E0C92E23
:10047000D12CE11640F0DF91CF911F91FF90EF90CA
:10048000DF90CF900895A7D1B60115D09881981725
:10049000D1F389838FEFE81AF80A2196EACF991BE6
:1004A00079E004C0991F961708F0961B881F7A956B
:1004B000C9F78095089597FB072E16F4009406D08F
:1004C00077FD08D00BD007FC05D03EF490958195C0
:1004D0009F4F0895709561957F4F0895AA1BBB1B90
:1004E00051E107C0AA1FBB1FA617B70710F0A61B34
:1004F000B70B881F991F5A95A9F780959095BC0155
:10050000CD0108955058BB27AA270ED0CBC0BCD030
:1005100030F0C1D020F031F49F3F11F41EF4B1C08F
:100520000EF4E095E7FBA7C0E92FCDD080F3BA1712
:10053000620773078407950718F071F49EF5E5C00C
:100540000EF4E0950B2EBA2FA02D0B01B9019001EE
:100550000C01CA01A0011124FF27591B99F0593F32
:1005600050F4503E68F11A16F040A22F232F342F7A
:100570004427585FF3CF469537952795A795F040C8
:100580005395C9F77EF41F16BA0B620B730B840BDD
:10059000BAF09150A1F0FF0FBB1F661F771F881F95
:1005A000C2F70EC0BA0F621F731F841F48F48795ED
:1005B00077956795B795F7959E3F08F0B3CF9395DC
:1005C000880F08F09927EE0F9795879508952FD0FB
:1005D00008F481E008957FD088F09F5790F0B92FFC
:1005E0009927B751A0F0D1F0660F771F881F991F88
:1005F0001AF0BA95C9F712C0B13081F086D0B1E0D7
:10060000089583C0672F782F8827B85F39F0B93FE6
:10061000CCF3869577956795B395D9F73EF4909589
:100620008095709561957F4F8F4F9F4F0895990FDB
:100630000008550FAA0BE0E8FEEF16161706E807AC
:10064000F907C0F012161306E407F50798F0621BCD
:10065000730B840B950B39F40A2661F0232B242BA2
:10066000252B21F408950A2609F4A140A6958FEFC1
:10067000811D811D089597F99F6780E870E060E013
:1006800008959FEF80EC089500240A94161617062B
:1006900018060906089500240A9412161306140673
:1006A00005060895092E0394000C11F4882352F0D6
:1006B000BB0F40F4BF2B11F460FF04C06F5F7F4F8E
:1006C0008F4F9F4F089557FD9058440F551F59F075
:1006D0005F3F71F04795880F97FB991F61F09F3F2F
:1006E00079F087950895121613061406551FF2CF58
:1006F0004695F1DF08C0161617061806991FF1CFA8
:1007000086957105610508940895E894BB276627CE
:100710007727CB0197F90895CF92DF92EF92FF925E
:10072000CF93DF93CDB7DEB72A970FB6F894DEBF2D
:100730000FBECDBF89879A87A985BA852D913D9136
:100740004D915C9129833A834B835C8382E49EECD8
:10075000ACE0BFE1211531054105510531F1CA0178
:10076000B9012DE133EF41E050E044D069017A0155
:10077000A7EAB1E49B01AC0159D069837A838B83EA
:100780009C83ACEEB4EFA70196015CD09B01AC0159
:1007900089819A81AB81BC81820F931FA41FB51FF1
:1007A000B7FF03C00197A109B048E985FA858083A6
:1007B0009183A283B3839F772A960FB6F894DEBF06
:1007C0000FBECDBFDF91CF91FF90EF90DF90CF9024
:1007D0000895A2DF089580E091E09EDF0895A0E0F3
:1007E000B0E08093000190930101A0930201B093C7
:1007F00003010895052E97FB16F400940FD057FDC2
:1008000005D024D007FC02D046F408C0509540958E
:10081000309521953F4F4F4F5F4F089590958095AC
:10082000709561957F4F8F4F9F4F089531D0A59F51
:10083000900DB49F900DA49F800D911D11240895DB
:10084000B7FFF4CFF3DF821B930B0895A1E21A2EBA
:10085000AA1BBB1BFD010DC0AA1FBB1FEE1FFF1F64
:10086000A217B307E407F50720F0A21BB30BE40BB4
:10087000F50B661F771F881F991F1A9469F76095FB
:100880007095809590959B01AC01BD01CF010895B5
:10089000A29FB001B39FC001A39F01D0B29F700D72
:0C08A000811D1124911D0895F894FFCFD4
:0608AC000100000001FF45
:00000001FF
